{
  "contractName": "myDefiProject",
  "abi": [
    {
      "inputs": [],
      "name": "decimals",
      "outputs": [
        {
          "internalType": "uint256",
          "name": "",
          "type": "uint256"
        }
      ],
      "stateMutability": "view",
      "type": "function"
    },
    {
      "inputs": [],
      "name": "exchangeTemplate",
      "outputs": [
        {
          "internalType": "address",
          "name": "",
          "type": "address"
        }
      ],
      "stateMutability": "view",
      "type": "function"
    },
    {
      "inputs": [],
      "name": "name",
      "outputs": [
        {
          "internalType": "bytes32",
          "name": "",
          "type": "bytes32"
        }
      ],
      "stateMutability": "view",
      "type": "function"
    },
    {
      "inputs": [],
      "name": "symbol",
      "outputs": [
        {
          "internalType": "bytes32",
          "name": "",
          "type": "bytes32"
        }
      ],
      "stateMutability": "view",
      "type": "function"
    },
    {
      "inputs": [],
      "name": "tokenCount",
      "outputs": [
        {
          "internalType": "uint256",
          "name": "",
          "type": "uint256"
        }
      ],
      "stateMutability": "view",
      "type": "function"
    },
    {
      "inputs": [
        {
          "internalType": "address",
          "name": "uniswapFactoryAddress",
          "type": "address"
        }
      ],
      "name": "setup",
      "outputs": [],
      "stateMutability": "nonpayable",
      "type": "function"
    },
    {
      "inputs": [
        {
          "internalType": "address",
          "name": "token",
          "type": "address"
        }
      ],
      "name": "createExchange",
      "outputs": [],
      "stateMutability": "nonpayable",
      "type": "function"
    },
    {
      "inputs": [
        {
          "internalType": "address",
          "name": "tokenAddress",
          "type": "address"
        }
      ],
      "name": "buy",
      "outputs": [],
      "stateMutability": "payable",
      "type": "function"
    },
    {
      "inputs": [
        {
          "internalType": "address",
          "name": "tokenAddress",
          "type": "address"
        }
      ],
      "name": "addLiquidity",
      "outputs": [],
      "stateMutability": "payable",
      "type": "function"
    }
  ],
  "bytecode": "0x608060405234801561001057600080fd5b50610ad6806100206000396000f3fe6080604052600436106100865760003560e01c806366d382031161005957806366d382031461013557806395d89b411461015e5780639f181b5e14610189578063e3412e3d146101b4578063f088d547146101d057610086565b806306fdde031461008b5780631648f38e146100b65780631c2bbd18146100df578063313ce5671461010a575b600080fd5b34801561009757600080fd5b506100a06101ec565b6040516100ad91906108e0565b60405180910390f35b3480156100c257600080fd5b506100dd60048036038101906100d891906107bd565b6101f2565b005b3480156100eb57600080fd5b506100f46102a3565b604051610101919061088e565b60405180910390f35b34801561011657600080fd5b5061011f6102c7565b60405161012c91906108fb565b60405180910390f35b34801561014157600080fd5b5061015c600480360381019061015791906107bd565b6102cd565b005b34801561016a57600080fd5b50610173610311565b60405161018091906108e0565b60405180910390f35b34801561019557600080fd5b5061019e610317565b6040516101ab91906108fb565b60405180910390f35b6101ce60048036038101906101c991906107bd565b61031d565b005b6101ea60048036038101906101e591906107bd565b61058b565b005b60025481565b600560009054906101000a900473ffffffffffffffffffffffffffffffffffffffff1673ffffffffffffffffffffffffffffffffffffffff16631648f38e826040518263ffffffff1660e01b815260040161024d919061088e565b602060405180830381600087803b15801561026757600080fd5b505af115801561027b573d6000803e3d6000fd5b505050506040513d601f19601f8201168201806040525081019061029f91906107e6565b5050565b60008054906101000a900473ffffffffffffffffffffffffffffffffffffffff1681565b60045481565b80600560006101000a81548173ffffffffffffffffffffffffffffffffffffffff021916908373ffffffffffffffffffffffffffffffffffffffff16021790555050565b60035481565b60015481565b6000600560009054906101000a900473ffffffffffffffffffffffffffffffffffffffff1673ffffffffffffffffffffffffffffffffffffffff166306f2bf62836040518263ffffffff1660e01b815260040161037a919061088e565b60206040518083038186803b15801561039257600080fd5b505afa1580156103a6573d6000803e3d6000fd5b505050506040513d601f19601f820116820180604052508101906103ca91906107e6565b905060008173ffffffffffffffffffffffffffffffffffffffff166359e94862346040518263ffffffff1660e01b815260040161040791906108fb565b60206040518083038186803b15801561041f57600080fd5b505afa158015610433573d6000803e3d6000fd5b505050506040513d601f19601f820116820180604052508101906104579190610838565b90508273ffffffffffffffffffffffffffffffffffffffff166323b872dd3330846040518463ffffffff1660e01b8152600401610496939291906108a9565b602060405180830381600087803b1580156104b057600080fd5b505af11580156104c4573d6000803e3d6000fd5b505050506040513d601f19601f820116820180604052508101906104e8919061080f565b508173ffffffffffffffffffffffffffffffffffffffff1663422f10433483846078426105159190610984565b6040518563ffffffff1660e01b81526004016105339392919061094d565b6020604051808303818588803b15801561054c57600080fd5b505af1158015610560573d6000803e3d6000fd5b50505050506040513d601f19601f820116820180604052508101906105859190610838565b50505050565b6000600560009054906101000a900473ffffffffffffffffffffffffffffffffffffffff1673ffffffffffffffffffffffffffffffffffffffff166306f2bf62836040518263ffffffff1660e01b81526004016105e8919061088e565b60206040518083038186803b15801561060057600080fd5b505afa158015610614573d6000803e3d6000fd5b505050506040513d601f19601f8201168201806040525081019061063891906107e6565b905060008173ffffffffffffffffffffffffffffffffffffffff166359e94862346040518263ffffffff1660e01b815260040161067591906108fb565b60206040518083038186803b15801561068d57600080fd5b505afa1580156106a1573d6000803e3d6000fd5b505050506040513d601f19601f820116820180604052508101906106c59190610838565b90508173ffffffffffffffffffffffffffffffffffffffff1663ad65d76d34836078426106f29190610984565b336040518563ffffffff1660e01b815260040161071193929190610916565b6020604051808303818588803b15801561072a57600080fd5b505af115801561073e573d6000803e3d6000fd5b50505050506040513d601f19601f820116820180604052508101906107639190610838565b50505050565b60008135905061077881610a5b565b92915050565b60008151905061078d81610a5b565b92915050565b6000815190506107a281610a72565b92915050565b6000815190506107b781610a89565b92915050565b6000602082840312156107cf57600080fd5b60006107dd84828501610769565b91505092915050565b6000602082840312156107f857600080fd5b60006108068482850161077e565b91505092915050565b60006020828403121561082157600080fd5b600061082f84828501610793565b91505092915050565b60006020828403121561084a57600080fd5b6000610858848285016107a8565b91505092915050565b61086a816109da565b82525050565b610879816109f8565b82525050565b61088881610a22565b82525050565b60006020820190506108a36000830184610861565b92915050565b60006060820190506108be6000830186610861565b6108cb6020830185610861565b6108d8604083018461087f565b949350505050565b60006020820190506108f56000830184610870565b92915050565b6000602082019050610910600083018461087f565b92915050565b600060608201905061092b600083018661087f565b610938602083018561087f565b6109456040830184610861565b949350505050565b6000606082019050610962600083018661087f565b61096f602083018561087f565b61097c604083018461087f565b949350505050565b600061098f82610a22565b915061099a83610a22565b9250827fffffffffffffffffffffffffffffffffffffffffffffffffffffffffffffffff038211156109cf576109ce610a2c565b5b828201905092915050565b60006109e582610a02565b9050919050565b60008115159050919050565b6000819050919050565b600073ffffffffffffffffffffffffffffffffffffffff82169050919050565b6000819050919050565b7f4e487b7100000000000000000000000000000000000000000000000000000000600052601160045260246000fd5b610a64816109da565b8114610a6f57600080fd5b50565b610a7b816109ec565b8114610a8657600080fd5b50565b610a9281610a22565b8114610a9d57600080fd5b5056fea26469706673582212204679caf76cb9ee58e2852ee7f635790f48dfda2de17fd7d63ee2ff5f137e389564736f6c63430008000033",
  "immutableReferences": {},
  "source": "pragma solidity 0.8.0;\nimport '@openzeppelin/contracts/token/ERC20/IERC20.sol';\n//https://www.youtube.com/watch?v=XjRhITVB2hI\n\ninterface UniswapFactoryInterface {\n    // Public Variables\n    // address public exchangeTemplate;\n    // uint256 public tokenCount;\n    // Create Exchange\n    function createExchange(address token) external returns (address exchange);\n    // Get Exchange and Token Info\n    function getExchange(address token) external view returns (address exchange);\n    function getToken(address exchange) external view returns (address token);\n    function getTokenWithId(uint256 tokenId) external view returns (address token);\n    // Never use\n    function initializeFactory(address template) external;\n}\n\ninterface UniswapExchangeInterface {\n    // Address of ERC20 token sold on this exchange\n    function tokenAddress() external view returns (address token);\n    // Address of Uniswap Factory\n    function factoryAddress() external view returns (address factory);\n    // Provide Liquidity\n    function addLiquidity(uint256 min_liquidity, uint256 max_tokens, uint256 deadline) external payable returns (uint256);\n    function removeLiquidity(uint256 amount, uint256 min_eth, uint256 min_tokens, uint256 deadline) external returns (uint256, uint256);\n    // Get Prices\n    function getEthToTokenInputPrice(uint256 eth_sold) external view returns (uint256 tokens_bought);\n    function getEthToTokenOutputPrice(uint256 tokens_bought) external view returns (uint256 eth_sold);\n    function getTokenToEthInputPrice(uint256 tokens_sold) external view returns (uint256 eth_bought);\n    function getTokenToEthOutputPrice(uint256 eth_bought) external view returns (uint256 tokens_sold);\n    // Trade ETH to ERC20\n    function ethToTokenSwapInput(uint256 min_tokens, uint256 deadline) external payable returns (uint256  tokens_bought);\n    function ethToTokenTransferInput(uint256 min_tokens, uint256 deadline, address recipient) external payable returns (uint256  tokens_bought);\n    function ethToTokenSwapOutput(uint256 tokens_bought, uint256 deadline) external payable returns (uint256  eth_sold);\n    function ethToTokenTransferOutput(uint256 tokens_bought, uint256 deadline, address recipient) external payable returns (uint256  eth_sold);\n    // Trade ERC20 to ETH\n    function tokenToEthSwapInput(uint256 tokens_sold, uint256 min_eth, uint256 deadline) external returns (uint256  eth_bought);\n    function tokenToEthTransferInput(uint256 tokens_sold, uint256 min_eth, uint256 deadline, address recipient) external returns (uint256  eth_bought);\n    function tokenToEthSwapOutput(uint256 eth_bought, uint256 max_tokens, uint256 deadline) external returns (uint256  tokens_sold);\n    function tokenToEthTransferOutput(uint256 eth_bought, uint256 max_tokens, uint256 deadline, address recipient) external returns (uint256  tokens_sold);\n    // Trade ERC20 to ERC20\n    function tokenToTokenSwapInput(uint256 tokens_sold, uint256 min_tokens_bought, uint256 min_eth_bought, uint256 deadline, address token_addr) external returns (uint256  tokens_bought);\n    function tokenToTokenTransferInput(uint256 tokens_sold, uint256 min_tokens_bought, uint256 min_eth_bought, uint256 deadline, address recipient, address token_addr) external returns (uint256  tokens_bought);\n    function tokenToTokenSwapOutput(uint256 tokens_bought, uint256 max_tokens_sold, uint256 max_eth_sold, uint256 deadline, address token_addr) external returns (uint256  tokens_sold);\n    function tokenToTokenTransferOutput(uint256 tokens_bought, uint256 max_tokens_sold, uint256 max_eth_sold, uint256 deadline, address recipient, address token_addr) external returns (uint256  tokens_sold);\n    // Trade ERC20 to Custom Pool\n    function tokenToExchangeSwapInput(uint256 tokens_sold, uint256 min_tokens_bought, uint256 min_eth_bought, uint256 deadline, address exchange_addr) external returns (uint256  tokens_bought);\n    function tokenToExchangeTransferInput(uint256 tokens_sold, uint256 min_tokens_bought, uint256 min_eth_bought, uint256 deadline, address recipient, address exchange_addr) external returns (uint256  tokens_bought);\n    function tokenToExchangeSwapOutput(uint256 tokens_bought, uint256 max_tokens_sold, uint256 max_eth_sold, uint256 deadline, address exchange_addr) external returns (uint256  tokens_sold);\n    function tokenToExchangeTransferOutput(uint256 tokens_bought, uint256 max_tokens_sold, uint256 max_eth_sold, uint256 deadline, address recipient, address exchange_addr) external returns (uint256  tokens_sold);\n    // ERC20 comaptibility for liquidity tokens\n    // bytes32 public name;\n    // bytes32 public symbol;\n    // uint256 public decimals;\n    function transfer(address _to, uint256 _value) external returns (bool);\n    function transferFrom(address _from, address _to, uint256 value) external returns (bool);\n    function approve(address _spender, uint256 _value) external returns (bool);\n    function allowance(address _owner, address _spender) external view returns (uint256);\n    function balanceOf(address _owner) external view returns (uint256);\n    function totalSupply() external view returns (uint256);\n    // Never use\n    function setup(address token_addr) external;\n}\n\ncontract myDefiProject {\n    \n    address public exchangeTemplate;\n    uint256 public tokenCount;\n\n    bytes32 public name;\n    bytes32 public symbol;\n    uint256 public decimals;\n  \n    UniswapFactoryInterface uniswapFactory;\n\n    function setup(address uniswapFactoryAddress) external {\n        \n        uniswapFactory = UniswapFactoryInterface(uniswapFactoryAddress);\n\n    }\n\n    function createExchange(address token) external {\n\n            uniswapFactory.createExchange(token);\n    }\n\n    function buy(address tokenAddress) external payable {\n           \n            UniswapExchangeInterface uniswapExchange = UniswapExchangeInterface(uniswapFactory.getExchange(tokenAddress));\n            uint tokenAmount = uniswapExchange.getEthToTokenOutputPrice(msg.value);\n\n            uniswapExchange.ethToTokenTransferInput{value:msg.value}(\n                tokenAmount,\n                block.timestamp + 120,\n                msg.sender\n            );\n\n    }\n\n    function addLiquidity(address tokenAddress) external payable {\n        \n            UniswapExchangeInterface uniswapExchange = UniswapExchangeInterface(uniswapFactory.getExchange(tokenAddress));\n            uint tokenAmount = uniswapExchange.getEthToTokenOutputPrice(msg.value);\n            IERC20(tokenAddress).transferFrom(msg.sender, address(this), tokenAmount);\n            uniswapExchange.addLiquidity{value:msg.value}(\n                tokenAmount,\n                tokenAmount,\n                block.timestamp + 120\n            );\n\n\n\n    }\n    \n}",
  "sourcePath": "/Users/conduent/test/intUniswap/contracts/myDefiProject.sol",
  "compiler": {
    "name": "solc",
    "version": "0.8.0+commit.c7dfd78e.Emscripten.clang"
  },
  "schemaVersion": "3.4.0",
  "updatedAt": "2021-06-28T14:25:37.735Z",
  "devdoc": {
    "kind": "dev",
    "methods": {},
    "version": 1
  },
  "userdoc": {
    "kind": "user",
    "methods": {},
    "version": 1
  }
}